{
  "_format": "hh-sol-artifact-1",
  "contractName": "Attendance",
  "sourceName": "contracts/Attendance.sol",
  "abi": [
    {
      "inputs": [
        {
          "internalType": "address",
          "name": "",
          "type": "address"
        }
      ],
      "name": "attendance",
      "outputs": [
        {
          "internalType": "bool",
          "name": "",
          "type": "bool"
        }
      ],
      "stateMutability": "view",
      "type": "function"
    },
    {
      "inputs": [
        {
          "internalType": "address",
          "name": "student",
          "type": "address"
        }
      ],
      "name": "checkAttendance",
      "outputs": [
        {
          "internalType": "bool",
          "name": "",
          "type": "bool"
        }
      ],
      "stateMutability": "view",
      "type": "function"
    },
    {
      "inputs": [],
      "name": "markAttendance",
      "outputs": [],
      "stateMutability": "nonpayable",
      "type": "function"
    }
  ],
  "bytecode": "0x608060405234801561001057600080fd5b5061027a806100206000396000f3fe608060405234801561001057600080fd5b50600436106100415760003560e01c806307df1e52146100465780633dc938c114610076578063e04359e814610080575b600080fd5b610060600480360381019061005b91906101e1565b6100b0565b60405161006d9190610229565b60405180910390f35b61007e610105565b005b61009a600480360381019061009591906101e1565b61015e565b6040516100a79190610229565b60405180910390f35b60008060008373ffffffffffffffffffffffffffffffffffffffff1673ffffffffffffffffffffffffffffffffffffffff16815260200190815260200160002060009054906101000a900460ff169050919050565b60016000803373ffffffffffffffffffffffffffffffffffffffff1673ffffffffffffffffffffffffffffffffffffffff16815260200190815260200160002060006101000a81548160ff021916908315150217905550565b60006020528060005260406000206000915054906101000a900460ff1681565b600080fd5b600073ffffffffffffffffffffffffffffffffffffffff82169050919050565b60006101ae82610183565b9050919050565b6101be816101a3565b81146101c957600080fd5b50565b6000813590506101db816101b5565b92915050565b6000602082840312156101f7576101f661017e565b5b6000610205848285016101cc565b91505092915050565b60008115159050919050565b6102238161020e565b82525050565b600060208201905061023e600083018461021a565b9291505056fea2646970667358221220a918f663e054c6531caaf668e5c26781632e98b31d8f2d0cc9667e136f4ae1bf64736f6c63430008130033",
  "linkReferences": {},
  "deployedLinkReferences": {}
}